{
    "_format": "hh-sol-artifact-1",
    "contractName": "Profile",
    "sourceName": "contracts/Profile.sol",
    "abi": [
        {
            "inputs": [],
            "stateMutability": "nonpayable",
            "type": "constructor"
        },
        {
            "inputs": [
                {
                    "internalType": "string",
                    "name": "_username",
                    "type": "string"
                },
                {
                    "internalType": "string",
                    "name": "_qrCode",
                    "type": "string"
                }
            ],
            "name": "createProfile",
            "outputs": [
                {
                    "components": [
                        {
                            "internalType": "address",
                            "name": "profileAddress",
                            "type": "address"
                        },
                        {
                            "internalType": "string",
                            "name": "username",
                            "type": "string"
                        },
                        {
                            "internalType": "string",
                            "name": "profileQRCode",
                            "type": "string"
                        }
                    ],
                    "internalType": "struct Profile.ProfileStruct",
                    "name": "",
                    "type": "tuple"
                }
            ],
            "stateMutability": "nonpayable",
            "type": "function"
        },
        {
            "inputs": [],
            "name": "owner",
            "outputs": [
                {
                    "internalType": "address",
                    "name": "",
                    "type": "address"
                }
            ],
            "stateMutability": "view",
            "type": "function"
        },
        {
            "inputs": [
                {
                    "internalType": "address",
                    "name": "",
                    "type": "address"
                }
            ],
            "name": "profiles",
            "outputs": [
                {
                    "internalType": "address",
                    "name": "profileAddress",
                    "type": "address"
                },
                {
                    "internalType": "string",
                    "name": "username",
                    "type": "string"
                },
                {
                    "internalType": "string",
                    "name": "profileQRCode",
                    "type": "string"
                }
            ],
            "stateMutability": "view",
            "type": "function"
        }
    ],
    "bytecode": "0x608060405234801561001057600080fd5b50336000806101000a81548173ffffffffffffffffffffffffffffffffffffffff021916908373ffffffffffffffffffffffffffffffffffffffff160217905550610d6d806100606000396000f3fe608060405234801561001057600080fd5b50600436106100415760003560e01c80638da5cb5b14610046578063ba1feb8a14610064578063bbe1562714610094575b600080fd5b61004e6100c6565b60405161005b9190610607565b60405180910390f35b61007e6004803603810190610079919061077c565b6100ea565b60405161008b91906108d9565b60405180910390f35b6100ae60048036038101906100a99190610927565b610435565b6040516100bd9392919061099e565b60405180910390f35b60008054906101000a900473ffffffffffffffffffffffffffffffffffffffff1681565b6100f261058f565b600073ffffffffffffffffffffffffffffffffffffffff16600160003373ffffffffffffffffffffffffffffffffffffffff1673ffffffffffffffffffffffffffffffffffffffff16815260200190815260200160002060000160009054906101000a900473ffffffffffffffffffffffffffffffffffffffff1673ffffffffffffffffffffffffffffffffffffffff16146101c3576040517f08c379a00000000000000000000000000000000000000000000000000000000081526004016101ba90610a2f565b60405180910390fd5b60405180606001604052803373ffffffffffffffffffffffffffffffffffffffff16815260200184815260200183815250600160003373ffffffffffffffffffffffffffffffffffffffff1673ffffffffffffffffffffffffffffffffffffffff16815260200190815260200160002060008201518160000160006101000a81548173ffffffffffffffffffffffffffffffffffffffff021916908373ffffffffffffffffffffffffffffffffffffffff160217905550602082015181600101908161028f9190610c65565b5060408201518160020190816102a59190610c65565b5090506040518060600160405290816000820160009054906101000a900473ffffffffffffffffffffffffffffffffffffffff1673ffffffffffffffffffffffffffffffffffffffff1673ffffffffffffffffffffffffffffffffffffffff16815260200160018201805461031990610a7e565b80601f016020809104026020016040519081016040528092919081815260200182805461034590610a7e565b80156103925780601f1061036757610100808354040283529160200191610392565b820191906000526020600020905b81548152906001019060200180831161037557829003601f168201915b505050505081526020016002820180546103ab90610a7e565b80601f01602080910402602001604051908101604052809291908181526020018280546103d790610a7e565b80156104245780601f106103f957610100808354040283529160200191610424565b820191906000526020600020905b81548152906001019060200180831161040757829003601f168201915b505050505081525050905092915050565b60016020528060005260406000206000915090508060000160009054906101000a900473ffffffffffffffffffffffffffffffffffffffff169080600101805461047e90610a7e565b80601f01602080910402602001604051908101604052809291908181526020018280546104aa90610a7e565b80156104f75780601f106104cc576101008083540402835291602001916104f7565b820191906000526020600020905b8154815290600101906020018083116104da57829003601f168201915b50505050509080600201805461050c90610a7e565b80601f016020809104026020016040519081016040528092919081815260200182805461053890610a7e565b80156105855780601f1061055a57610100808354040283529160200191610585565b820191906000526020600020905b81548152906001019060200180831161056857829003601f168201915b5050505050905083565b6040518060600160405280600073ffffffffffffffffffffffffffffffffffffffff16815260200160608152602001606081525090565b600073ffffffffffffffffffffffffffffffffffffffff82169050919050565b60006105f1826105c6565b9050919050565b610601816105e6565b82525050565b600060208201905061061c60008301846105f8565b92915050565b6000604051905090565b600080fd5b600080fd5b600080fd5b600080fd5b6000601f19601f8301169050919050565b7f4e487b7100000000000000000000000000000000000000000000000000000000600052604160045260246000fd5b61068982610640565b810181811067ffffffffffffffff821117156106a8576106a7610651565b5b80604052505050565b60006106bb610622565b90506106c78282610680565b919050565b600067ffffffffffffffff8211156106e7576106e6610651565b5b6106f082610640565b9050602081019050919050565b82818337600083830152505050565b600061071f61071a846106cc565b6106b1565b90508281526020810184848401111561073b5761073a61063b565b5b6107468482856106fd565b509392505050565b600082601f83011261076357610762610636565b5b813561077384826020860161070c565b91505092915050565b600080604083850312156107935761079261062c565b5b600083013567ffffffffffffffff8111156107b1576107b0610631565b5b6107bd8582860161074e565b925050602083013567ffffffffffffffff8111156107de576107dd610631565b5b6107ea8582860161074e565b9150509250929050565b6107fd816105e6565b82525050565b600081519050919050565b600082825260208201905092915050565b60005b8381101561083d578082015181840152602081019050610822565b60008484015250505050565b600061085482610803565b61085e818561080e565b935061086e81856020860161081f565b61087781610640565b840191505092915050565b600060608301600083015161089a60008601826107f4565b50602083015184820360208601526108b28282610849565b915050604083015184820360408601526108cc8282610849565b9150508091505092915050565b600060208201905081810360008301526108f38184610882565b905092915050565b610904816105e6565b811461090f57600080fd5b50565b600081359050610921816108fb565b92915050565b60006020828403121561093d5761093c61062c565b5b600061094b84828501610912565b91505092915050565b600082825260208201905092915050565b600061097082610803565b61097a8185610954565b935061098a81856020860161081f565b61099381610640565b840191505092915050565b60006060820190506109b360008301866105f8565b81810360208301526109c58185610965565b905081810360408301526109d98184610965565b9050949350505050565b7f50726f66696c653a2070726f66696c6520616c72656164792065786973747300600082015250565b6000610a19601f83610954565b9150610a24826109e3565b602082019050919050565b60006020820190508181036000830152610a4881610a0c565b9050919050565b7f4e487b7100000000000000000000000000000000000000000000000000000000600052602260045260246000fd5b60006002820490506001821680610a9657607f821691505b602082108103610aa957610aa8610a4f565b5b50919050565b60008190508160005260206000209050919050565b60006020601f8301049050919050565b600082821b905092915050565b600060088302610b117fffffffffffffffffffffffffffffffffffffffffffffffffffffffffffffffff82610ad4565b610b1b8683610ad4565b95508019841693508086168417925050509392505050565b6000819050919050565b6000819050919050565b6000610b62610b5d610b5884610b33565b610b3d565b610b33565b9050919050565b6000819050919050565b610b7c83610b47565b610b90610b8882610b69565b848454610ae1565b825550505050565b600090565b610ba5610b98565b610bb0818484610b73565b505050565b5b81811015610bd457610bc9600082610b9d565b600181019050610bb6565b5050565b601f821115610c1957610bea81610aaf565b610bf384610ac4565b81016020851015610c02578190505b610c16610c0e85610ac4565b830182610bb5565b50505b505050565b600082821c905092915050565b6000610c3c60001984600802610c1e565b1980831691505092915050565b6000610c558383610c2b565b9150826002028217905092915050565b610c6e82610803565b67ffffffffffffffff811115610c8757610c86610651565b5b610c918254610a7e565b610c9c828285610bd8565b600060209050601f831160018114610ccf5760008415610cbd578287015190505b610cc78582610c49565b865550610d2f565b601f198416610cdd86610aaf565b60005b82811015610d0557848901518255600182019150602085019450602081019050610ce0565b86831015610d225784890151610d1e601f891682610c2b565b8355505b6001600288020188555050505b50505050505056fea2646970667358221220199d19325ee3ee582fa347dfde8d04cfb92c5cb800ad33d830f6bdc8f0da723564736f6c63430008120033",
    "linkReferences": {},
    "deployedLinkReferences": {}
}