{
  "_format": "hh-sol-artifact-1",
  "contractName": "Verification",
  "sourceName": "contracts/Verification.sol",
  "abi": [
    {
      "inputs": [],
      "stateMutability": "nonpayable",
      "type": "constructor"
    },
    {
      "inputs": [],
      "name": "fee",
      "outputs": [
        {
          "internalType": "uint256",
          "name": "",
          "type": "uint256"
        }
      ],
      "stateMutability": "view",
      "type": "function"
    },
    {
      "inputs": [],
      "name": "getAdmin",
      "outputs": [
        {
          "internalType": "address",
          "name": "",
          "type": "address"
        }
      ],
      "stateMutability": "view",
      "type": "function"
    },
    {
      "inputs": [
        {
          "internalType": "address",
          "name": "user",
          "type": "address"
        }
      ],
      "name": "getAllUsersPost",
      "outputs": [
        {
          "components": [
            {
              "internalType": "uint256",
              "name": "postNumber",
              "type": "uint256"
            },
            {
              "internalType": "string",
              "name": "ipfsHash",
              "type": "string"
            },
            {
              "internalType": "string",
              "name": "qrCodeSvg",
              "type": "string"
            }
          ],
          "internalType": "struct Verification.Post[]",
          "name": "",
          "type": "tuple[]"
        }
      ],
      "stateMutability": "view",
      "type": "function"
    },
    {
      "inputs": [],
      "name": "getFee",
      "outputs": [
        {
          "internalType": "uint256",
          "name": "",
          "type": "uint256"
        }
      ],
      "stateMutability": "view",
      "type": "function"
    },
    {
      "inputs": [
        {
          "internalType": "address",
          "name": "user",
          "type": "address"
        },
        {
          "internalType": "uint256",
          "name": "postNum",
          "type": "uint256"
        }
      ],
      "name": "getSpecificPost",
      "outputs": [
        {
          "components": [
            {
              "internalType": "uint256",
              "name": "postNumber",
              "type": "uint256"
            },
            {
              "internalType": "string",
              "name": "ipfsHash",
              "type": "string"
            },
            {
              "internalType": "string",
              "name": "qrCodeSvg",
              "type": "string"
            }
          ],
          "internalType": "struct Verification.Post",
          "name": "",
          "type": "tuple"
        }
      ],
      "stateMutability": "view",
      "type": "function"
    },
    {
      "inputs": [
        {
          "internalType": "string",
          "name": "_ipfsHash",
          "type": "string"
        },
        {
          "internalType": "string",
          "name": "_qrcodeSvg",
          "type": "string"
        }
      ],
      "name": "makePost",
      "outputs": [
        {
          "components": [
            {
              "internalType": "uint256",
              "name": "postNumber",
              "type": "uint256"
            },
            {
              "internalType": "string",
              "name": "ipfsHash",
              "type": "string"
            },
            {
              "internalType": "string",
              "name": "qrCodeSvg",
              "type": "string"
            }
          ],
          "internalType": "struct Verification.Post",
          "name": "",
          "type": "tuple"
        }
      ],
      "stateMutability": "payable",
      "type": "function"
    },
    {
      "inputs": [
        {
          "internalType": "address",
          "name": "newAdmin",
          "type": "address"
        }
      ],
      "name": "setAdmin",
      "outputs": [
        {
          "internalType": "address",
          "name": "",
          "type": "address"
        }
      ],
      "stateMutability": "nonpayable",
      "type": "function"
    },
    {
      "inputs": [
        {
          "internalType": "uint256",
          "name": "newFee",
          "type": "uint256"
        }
      ],
      "name": "setFee",
      "outputs": [],
      "stateMutability": "nonpayable",
      "type": "function"
    },
    {
      "inputs": [
        {
          "internalType": "address",
          "name": "",
          "type": "address"
        },
        {
          "internalType": "uint256",
          "name": "",
          "type": "uint256"
        }
      ],
      "name": "usersPosts",
      "outputs": [
        {
          "internalType": "uint256",
          "name": "postNumber",
          "type": "uint256"
        },
        {
          "internalType": "string",
          "name": "ipfsHash",
          "type": "string"
        },
        {
          "internalType": "string",
          "name": "qrCodeSvg",
          "type": "string"
        }
      ],
      "stateMutability": "view",
      "type": "function"
    }
  ],
  "bytecode": "0x60806040526001805534801561001457600080fd5b50336000806101000a81548173ffffffffffffffffffffffffffffffffffffffff021916908373ffffffffffffffffffffffffffffffffffffffff160217905550611772806100646000396000f3fe6080604052600436106100865760003560e01c8063704b6c0211610059578063704b6c021461014e5780639519a48d1461018b578063ced72f87146101c8578063ddca3f43146101f3578063fd9228631461021e57610086565b80633822ba8d1461008b5780634be751a7146100bb57806369fe0e2d146100fa5780636e9960c314610123575b600080fd5b6100a560048036038101906100a09190610cd1565b61025b565b6040516100b29190610e38565b60405180910390f35b3480156100c757600080fd5b506100e260048036038101906100dd9190610ee4565b61042d565b6040516100f193929190610f7d565b60405180910390f35b34801561010657600080fd5b50610121600480360381019061011c9190610fc2565b610584565b005b34801561012f57600080fd5b50610138610661565b6040516101459190610ffe565b60405180910390f35b34801561015a57600080fd5b5061017560048036038101906101709190611019565b61068a565b6040516101829190610ffe565b60405180910390f35b34801561019757600080fd5b506101b260048036038101906101ad9190610ee4565b610783565b6040516101bf9190610e38565b60405180910390f35b3480156101d457600080fd5b506101dd61097a565b6040516101ea9190611046565b60405180910390f35b3480156101ff57600080fd5b50610208610984565b6040516102159190611046565b60405180910390f35b34801561022a57600080fd5b5061024560048036038101906102409190611019565b61098a565b604051610252919061117a565b60405180910390f35b610263610b56565b6001543410156102a8576040517f08c379a000000000000000000000000000000000000000000000000000000000815260040161029f906111e8565b60405180910390fd5b60006001600260003373ffffffffffffffffffffffffffffffffffffffff1673ffffffffffffffffffffffffffffffffffffffff168152602001908152602001600020805490506102f99190611237565b905060006040518060600160405280838152602001868152602001858152509050600260003373ffffffffffffffffffffffffffffffffffffffff1673ffffffffffffffffffffffffffffffffffffffff1681526020019081526020016000208190806001815401808255809150506001900390600052602060002090600302016000909190919091506000820151816000015560208201518160010190816103a29190611477565b5060408201518160020190816103b89190611477565b50505060008054906101000a900473ffffffffffffffffffffffffffffffffffffffff1673ffffffffffffffffffffffffffffffffffffffff166108fc349081150290604051600060405180830381858888f19350505050158015610421573d6000803e3d6000fd5b50809250505092915050565b6002602052816000526040600020818154811061044957600080fd5b9060005260206000209060030201600091509150508060000154908060010180546104739061129a565b80601f016020809104026020016040519081016040528092919081815260200182805461049f9061129a565b80156104ec5780601f106104c1576101008083540402835291602001916104ec565b820191906000526020600020905b8154815290600101906020018083116104cf57829003601f168201915b5050505050908060020180546105019061129a565b80601f016020809104026020016040519081016040528092919081815260200182805461052d9061129a565b801561057a5780601f1061054f5761010080835404028352916020019161057a565b820191906000526020600020905b81548152906001019060200180831161055d57829003601f168201915b5050505050905083565b60008054906101000a900473ffffffffffffffffffffffffffffffffffffffff1673ffffffffffffffffffffffffffffffffffffffff163373ffffffffffffffffffffffffffffffffffffffff1614610612576040517f08c379a0000000000000000000000000000000000000000000000000000000008152600401610609906115bb565b60405180910390fd5b600060015411610657576040517f08c379a000000000000000000000000000000000000000000000000000000000815260040161064e90611627565b60405180910390fd5b8060018190555050565b60008060009054906101000a900473ffffffffffffffffffffffffffffffffffffffff16905090565b60008060009054906101000a900473ffffffffffffffffffffffffffffffffffffffff1673ffffffffffffffffffffffffffffffffffffffff163373ffffffffffffffffffffffffffffffffffffffff161461071b576040517f08c379a0000000000000000000000000000000000000000000000000000000008152600401610712906115bb565b60405180910390fd5b816000806101000a81548173ffffffffffffffffffffffffffffffffffffffff021916908373ffffffffffffffffffffffffffffffffffffffff16021790555060008054906101000a900473ffffffffffffffffffffffffffffffffffffffff169050919050565b61078b610b56565b600082116107ce576040517f08c379a00000000000000000000000000000000000000000000000000000000081526004016107c5906116b9565b60405180910390fd5b600260008473ffffffffffffffffffffffffffffffffffffffff1673ffffffffffffffffffffffffffffffffffffffff16815260200190815260200160002060018361081a91906116d9565b8154811061082b5761082a61170d565b5b90600052602060002090600302016040518060600160405290816000820154815260200160018201805461085e9061129a565b80601f016020809104026020016040519081016040528092919081815260200182805461088a9061129a565b80156108d75780601f106108ac576101008083540402835291602001916108d7565b820191906000526020600020905b8154815290600101906020018083116108ba57829003601f168201915b505050505081526020016002820180546108f09061129a565b80601f016020809104026020016040519081016040528092919081815260200182805461091c9061129a565b80156109695780601f1061093e57610100808354040283529160200191610969565b820191906000526020600020905b81548152906001019060200180831161094c57829003601f168201915b505050505081525050905092915050565b6000600154905090565b60015481565b6060600260008373ffffffffffffffffffffffffffffffffffffffff1673ffffffffffffffffffffffffffffffffffffffff168152602001908152602001600020805480602002602001604051908101604052809291908181526020016000905b82821015610b4b578382906000526020600020906003020160405180606001604052908160008201548152602001600182018054610a289061129a565b80601f0160208091040260200160405190810160405280929190818152602001828054610a549061129a565b8015610aa15780601f10610a7657610100808354040283529160200191610aa1565b820191906000526020600020905b815481529060010190602001808311610a8457829003601f168201915b50505050508152602001600282018054610aba9061129a565b80601f0160208091040260200160405190810160405280929190818152602001828054610ae69061129a565b8015610b335780601f10610b0857610100808354040283529160200191610b33565b820191906000526020600020905b815481529060010190602001808311610b1657829003601f168201915b505050505081525050815260200190600101906109eb565b505050509050919050565b60405180606001604052806000815260200160608152602001606081525090565b6000604051905090565b600080fd5b600080fd5b600080fd5b600080fd5b6000601f19601f8301169050919050565b7f4e487b7100000000000000000000000000000000000000000000000000000000600052604160045260246000fd5b610bde82610b95565b810181811067ffffffffffffffff82111715610bfd57610bfc610ba6565b5b80604052505050565b6000610c10610b77565b9050610c1c8282610bd5565b919050565b600067ffffffffffffffff821115610c3c57610c3b610ba6565b5b610c4582610b95565b9050602081019050919050565b82818337600083830152505050565b6000610c74610c6f84610c21565b610c06565b905082815260208101848484011115610c9057610c8f610b90565b5b610c9b848285610c52565b509392505050565b600082601f830112610cb857610cb7610b8b565b5b8135610cc8848260208601610c61565b91505092915050565b60008060408385031215610ce857610ce7610b81565b5b600083013567ffffffffffffffff811115610d0657610d05610b86565b5b610d1285828601610ca3565b925050602083013567ffffffffffffffff811115610d3357610d32610b86565b5b610d3f85828601610ca3565b9150509250929050565b6000819050919050565b610d5c81610d49565b82525050565b600081519050919050565b600082825260208201905092915050565b60005b83811015610d9c578082015181840152602081019050610d81565b60008484015250505050565b6000610db382610d62565b610dbd8185610d6d565b9350610dcd818560208601610d7e565b610dd681610b95565b840191505092915050565b6000606083016000830151610df96000860182610d53565b5060208301518482036020860152610e118282610da8565b91505060408301518482036040860152610e2b8282610da8565b9150508091505092915050565b60006020820190508181036000830152610e528184610de1565b905092915050565b600073ffffffffffffffffffffffffffffffffffffffff82169050919050565b6000610e8582610e5a565b9050919050565b610e9581610e7a565b8114610ea057600080fd5b50565b600081359050610eb281610e8c565b92915050565b610ec181610d49565b8114610ecc57600080fd5b50565b600081359050610ede81610eb8565b92915050565b60008060408385031215610efb57610efa610b81565b5b6000610f0985828601610ea3565b9250506020610f1a85828601610ecf565b9150509250929050565b610f2d81610d49565b82525050565b600082825260208201905092915050565b6000610f4f82610d62565b610f598185610f33565b9350610f69818560208601610d7e565b610f7281610b95565b840191505092915050565b6000606082019050610f926000830186610f24565b8181036020830152610fa48185610f44565b90508181036040830152610fb88184610f44565b9050949350505050565b600060208284031215610fd857610fd7610b81565b5b6000610fe684828501610ecf565b91505092915050565b610ff881610e7a565b82525050565b60006020820190506110136000830184610fef565b92915050565b60006020828403121561102f5761102e610b81565b5b600061103d84828501610ea3565b91505092915050565b600060208201905061105b6000830184610f24565b92915050565b600081519050919050565b600082825260208201905092915050565b6000819050602082019050919050565b60006060830160008301516110a56000860182610d53565b50602083015184820360208601526110bd8282610da8565b915050604083015184820360408601526110d78282610da8565b9150508091505092915050565b60006110f0838361108d565b905092915050565b6000602082019050919050565b600061111082611061565b61111a818561106c565b93508360208202850161112c8561107d565b8060005b85811015611168578484038952815161114985826110e4565b9450611154836110f8565b925060208a01995050600181019050611130565b50829750879550505050505092915050565b600060208201905081810360008301526111948184611105565b905092915050565b7f566572696669636174696f6e3a20506179205265717569726564204665650000600082015250565b60006111d2601e83610f33565b91506111dd8261119c565b602082019050919050565b60006020820190508181036000830152611201816111c5565b9050919050565b7f4e487b7100000000000000000000000000000000000000000000000000000000600052601160045260246000fd5b600061124282610d49565b915061124d83610d49565b925082820190508082111561126557611264611208565b5b92915050565b7f4e487b7100000000000000000000000000000000000000000000000000000000600052602260045260246000fd5b600060028204905060018216806112b257607f821691505b6020821081036112c5576112c461126b565b5b50919050565b60008190508160005260206000209050919050565b60006020601f8301049050919050565b600082821b905092915050565b60006008830261132d7fffffffffffffffffffffffffffffffffffffffffffffffffffffffffffffffff826112f0565b61133786836112f0565b95508019841693508086168417925050509392505050565b6000819050919050565b600061137461136f61136a84610d49565b61134f565b610d49565b9050919050565b6000819050919050565b61138e83611359565b6113a261139a8261137b565b8484546112fd565b825550505050565b600090565b6113b76113aa565b6113c2818484611385565b505050565b5b818110156113e6576113db6000826113af565b6001810190506113c8565b5050565b601f82111561142b576113fc816112cb565b611405846112e0565b81016020851015611414578190505b611428611420856112e0565b8301826113c7565b50505b505050565b600082821c905092915050565b600061144e60001984600802611430565b1980831691505092915050565b6000611467838361143d565b9150826002028217905092915050565b61148082610d62565b67ffffffffffffffff81111561149957611498610ba6565b5b6114a3825461129a565b6114ae8282856113ea565b600060209050601f8311600181146114e157600084156114cf578287015190505b6114d9858261145b565b865550611541565b601f1984166114ef866112cb565b60005b82811015611517578489015182556001820191506020850194506020810190506114f2565b868310156115345784890151611530601f89168261143d565b8355505b6001600288020188555050505b505050505050565b7f566572696669636174696f6e3a204f6e6c792041646d696e2043616e2043616c60008201527f6c2066756e6374696f6e00000000000000000000000000000000000000000000602082015250565b60006115a5602a83610f33565b91506115b082611549565b604082019050919050565b600060208201905081810360008301526115d481611598565b9050919050565b7f566572696669636174696f6e3a204665652063616e6e6f74206265207a65726f600082015250565b6000611611602083610f33565b915061161c826115db565b602082019050919050565b6000602082019050818103600083015261164081611604565b9050919050565b7f566572696669636174696f6e3a20756e646572666c6f772070726f746563746960008201527f6f6e000000000000000000000000000000000000000000000000000000000000602082015250565b60006116a3602283610f33565b91506116ae82611647565b604082019050919050565b600060208201905081810360008301526116d281611696565b9050919050565b60006116e482610d49565b91506116ef83610d49565b925082820390508181111561170757611706611208565b5b92915050565b7f4e487b7100000000000000000000000000000000000000000000000000000000600052603260045260246000fdfea26469706673582212207997cc076241254bd036a4a7447835f32ab584e0167a71dc7c03bfc9636dc15164736f6c63430008120033",
  "linkReferences": {},
  "deployedLinkReferences": {}
}