{
  "_format": "hh-sol-artifact-1",
  "contractName": "Verification",
  "sourceName": "contracts/Verification.sol",
  "abi": [
    {
      "inputs": [],
      "stateMutability": "nonpayable",
      "type": "constructor"
    },
    {
      "inputs": [],
      "name": "fee",
      "outputs": [
        {
          "internalType": "uint256",
          "name": "",
          "type": "uint256"
        }
      ],
      "stateMutability": "view",
      "type": "function"
    },
    {
      "inputs": [],
      "name": "getAdmin",
      "outputs": [
        {
          "internalType": "address",
          "name": "",
          "type": "address"
        }
      ],
      "stateMutability": "view",
      "type": "function"
    },
    {
      "inputs": [
        {
          "internalType": "address",
          "name": "user",
          "type": "address"
        }
      ],
      "name": "getAllUsersPost",
      "outputs": [
        {
          "components": [
            {
              "internalType": "uint256",
              "name": "postNumber",
              "type": "uint256"
            },
            {
              "internalType": "string",
              "name": "ipfsHash",
              "type": "string"
            }
          ],
          "internalType": "struct Verification.Post[]",
          "name": "",
          "type": "tuple[]"
        }
      ],
      "stateMutability": "view",
      "type": "function"
    },
    {
      "inputs": [],
      "name": "getFee",
      "outputs": [
        {
          "internalType": "uint256",
          "name": "",
          "type": "uint256"
        }
      ],
      "stateMutability": "view",
      "type": "function"
    },
    {
      "inputs": [
        {
          "internalType": "address",
          "name": "user",
          "type": "address"
        },
        {
          "internalType": "uint256",
          "name": "postNum",
          "type": "uint256"
        }
      ],
      "name": "getSpecificPost",
      "outputs": [
        {
          "components": [
            {
              "internalType": "uint256",
              "name": "postNumber",
              "type": "uint256"
            },
            {
              "internalType": "string",
              "name": "ipfsHash",
              "type": "string"
            }
          ],
          "internalType": "struct Verification.Post",
          "name": "",
          "type": "tuple"
        }
      ],
      "stateMutability": "view",
      "type": "function"
    },
    {
      "inputs": [
        {
          "internalType": "string",
          "name": "_ipfsHash",
          "type": "string"
        }
      ],
      "name": "makePost",
      "outputs": [
        {
          "components": [
            {
              "internalType": "uint256",
              "name": "postNumber",
              "type": "uint256"
            },
            {
              "internalType": "string",
              "name": "ipfsHash",
              "type": "string"
            }
          ],
          "internalType": "struct Verification.Post",
          "name": "",
          "type": "tuple"
        }
      ],
      "stateMutability": "payable",
      "type": "function"
    },
    {
      "inputs": [
        {
          "internalType": "address",
          "name": "newAdmin",
          "type": "address"
        }
      ],
      "name": "setAdmin",
      "outputs": [
        {
          "internalType": "address",
          "name": "",
          "type": "address"
        }
      ],
      "stateMutability": "nonpayable",
      "type": "function"
    },
    {
      "inputs": [
        {
          "internalType": "uint256",
          "name": "newFee",
          "type": "uint256"
        }
      ],
      "name": "setFee",
      "outputs": [],
      "stateMutability": "nonpayable",
      "type": "function"
    },
    {
      "inputs": [
        {
          "internalType": "address",
          "name": "",
          "type": "address"
        },
        {
          "internalType": "uint256",
          "name": "",
          "type": "uint256"
        }
      ],
      "name": "usersPosts",
      "outputs": [
        {
          "internalType": "uint256",
          "name": "postNumber",
          "type": "uint256"
        },
        {
          "internalType": "string",
          "name": "ipfsHash",
          "type": "string"
        }
      ],
      "stateMutability": "view",
      "type": "function"
    },
    {
      "inputs": [],
      "name": "withdrawFunds",
      "outputs": [],
      "stateMutability": "nonpayable",
      "type": "function"
    },
    {
      "stateMutability": "payable",
      "type": "receive"
    }
  ],
  "bytecode": "0x60806040526001805534801561001457600080fd5b50336000806101000a81548173ffffffffffffffffffffffffffffffffffffffff021916908373ffffffffffffffffffffffffffffffffffffffff1602179055506115e0806100646000396000f3fe6080604052600436106100955760003560e01c80639519a48d116100595780639519a48d14610187578063ced72f87146101c4578063ddca3f43146101ef578063ea00f39d1461021a578063fd9228631461024a5761009c565b806324600fc3146100a15780634be751a7146100b857806369fe0e2d146100f65780636e9960c31461011f578063704b6c021461014a5761009c565b3661009c57005b600080fd5b3480156100ad57600080fd5b506100b6610287565b005b3480156100c457600080fd5b506100df60048036038101906100da9190610b05565b61037e565b6040516100ed929190610be4565b60405180910390f35b34801561010257600080fd5b5061011d60048036038101906101189190610c14565b610447565b005b34801561012b57600080fd5b50610134610524565b6040516101419190610c50565b60405180910390f35b34801561015657600080fd5b50610171600480360381019061016c9190610c6b565b61054d565b60405161017e9190610c50565b60405180910390f35b34801561019357600080fd5b506101ae60048036038101906101a99190610b05565b610646565b6040516101bb9190610d2e565b60405180910390f35b3480156101d057600080fd5b506101d96107ab565b6040516101e69190610d50565b60405180910390f35b3480156101fb57600080fd5b506102046107b5565b6040516102119190610d50565b60405180910390f35b610234600480360381019061022f9190610ea0565b6107bb565b6040516102419190610d2e565b60405180910390f35b34801561025657600080fd5b50610271600480360381019061026c9190610c6b565b610909565b60405161027e9190610fe8565b60405180910390f35b60008054906101000a900473ffffffffffffffffffffffffffffffffffffffff1673ffffffffffffffffffffffffffffffffffffffff163373ffffffffffffffffffffffffffffffffffffffff1614610315576040517f08c379a000000000000000000000000000000000000000000000000000000000815260040161030c9061107c565b60405180910390fd5b60008054906101000a900473ffffffffffffffffffffffffffffffffffffffff1673ffffffffffffffffffffffffffffffffffffffff166108fc479081150290604051600060405180830381858888f1935050505015801561037b573d6000803e3d6000fd5b50565b6002602052816000526040600020818154811061039a57600080fd5b9060005260206000209060020201600091509150508060000154908060010180546103c4906110cb565b80601f01602080910402602001604051908101604052809291908181526020018280546103f0906110cb565b801561043d5780601f106104125761010080835404028352916020019161043d565b820191906000526020600020905b81548152906001019060200180831161042057829003601f168201915b5050505050905082565b60008054906101000a900473ffffffffffffffffffffffffffffffffffffffff1673ffffffffffffffffffffffffffffffffffffffff163373ffffffffffffffffffffffffffffffffffffffff16146104d5576040517f08c379a00000000000000000000000000000000000000000000000000000000081526004016104cc9061107c565b60405180910390fd5b60006001541161051a576040517f08c379a000000000000000000000000000000000000000000000000000000000815260040161051190611148565b60405180910390fd5b8060018190555050565b60008060009054906101000a900473ffffffffffffffffffffffffffffffffffffffff16905090565b60008060009054906101000a900473ffffffffffffffffffffffffffffffffffffffff1673ffffffffffffffffffffffffffffffffffffffff163373ffffffffffffffffffffffffffffffffffffffff16146105de576040517f08c379a00000000000000000000000000000000000000000000000000000000081526004016105d59061107c565b60405180910390fd5b816000806101000a81548173ffffffffffffffffffffffffffffffffffffffff021916908373ffffffffffffffffffffffffffffffffffffffff16021790555060008054906101000a900473ffffffffffffffffffffffffffffffffffffffff169050919050565b61064e610a43565b60008211610691576040517f08c379a0000000000000000000000000000000000000000000000000000000008152600401610688906111da565b60405180910390fd5b600260008473ffffffffffffffffffffffffffffffffffffffff1673ffffffffffffffffffffffffffffffffffffffff1681526020019081526020016000206001836106dd9190611229565b815481106106ee576106ed61125d565b5b906000526020600020906002020160405180604001604052908160008201548152602001600182018054610721906110cb565b80601f016020809104026020016040519081016040528092919081815260200182805461074d906110cb565b801561079a5780601f1061076f5761010080835404028352916020019161079a565b820191906000526020600020905b81548152906001019060200180831161077d57829003601f168201915b505050505081525050905092915050565b6000600154905090565b60015481565b6107c3610a43565b600154341015610808576040517f08c379a00000000000000000000000000000000000000000000000000000000081526004016107ff906112d8565b60405180910390fd5b60006001600260003373ffffffffffffffffffffffffffffffffffffffff1673ffffffffffffffffffffffffffffffffffffffff1681526020019081526020016000208054905061085991906112f8565b905060006040518060400160405280838152602001858152509050600260003373ffffffffffffffffffffffffffffffffffffffff1673ffffffffffffffffffffffffffffffffffffffff1681526020019081526020016000208190806001815401808255809150506001900390600052602060002090600202016000909190919091506000820151816000015560208201518160010190816108fc91906114d8565b5050508092505050919050565b6060600260008373ffffffffffffffffffffffffffffffffffffffff1673ffffffffffffffffffffffffffffffffffffffff168152602001908152602001600020805480602002602001604051908101604052809291908181526020016000905b82821015610a385783829060005260206000209060020201604051806040016040529081600082015481526020016001820180546109a7906110cb565b80601f01602080910402602001604051908101604052809291908181526020018280546109d3906110cb565b8015610a205780601f106109f557610100808354040283529160200191610a20565b820191906000526020600020905b815481529060010190602001808311610a0357829003601f168201915b5050505050815250508152602001906001019061096a565b505050509050919050565b604051806040016040528060008152602001606081525090565b6000604051905090565b600080fd5b600080fd5b600073ffffffffffffffffffffffffffffffffffffffff82169050919050565b6000610a9c82610a71565b9050919050565b610aac81610a91565b8114610ab757600080fd5b50565b600081359050610ac981610aa3565b92915050565b6000819050919050565b610ae281610acf565b8114610aed57600080fd5b50565b600081359050610aff81610ad9565b92915050565b60008060408385031215610b1c57610b1b610a67565b5b6000610b2a85828601610aba565b9250506020610b3b85828601610af0565b9150509250929050565b610b4e81610acf565b82525050565b600081519050919050565b600082825260208201905092915050565b60005b83811015610b8e578082015181840152602081019050610b73565b60008484015250505050565b6000601f19601f8301169050919050565b6000610bb682610b54565b610bc08185610b5f565b9350610bd0818560208601610b70565b610bd981610b9a565b840191505092915050565b6000604082019050610bf96000830185610b45565b8181036020830152610c0b8184610bab565b90509392505050565b600060208284031215610c2a57610c29610a67565b5b6000610c3884828501610af0565b91505092915050565b610c4a81610a91565b82525050565b6000602082019050610c656000830184610c41565b92915050565b600060208284031215610c8157610c80610a67565b5b6000610c8f84828501610aba565b91505092915050565b610ca181610acf565b82525050565b600082825260208201905092915050565b6000610cc382610b54565b610ccd8185610ca7565b9350610cdd818560208601610b70565b610ce681610b9a565b840191505092915050565b6000604083016000830151610d096000860182610c98565b5060208301518482036020860152610d218282610cb8565b9150508091505092915050565b60006020820190508181036000830152610d488184610cf1565b905092915050565b6000602082019050610d656000830184610b45565b92915050565b600080fd5b600080fd5b7f4e487b7100000000000000000000000000000000000000000000000000000000600052604160045260246000fd5b610dad82610b9a565b810181811067ffffffffffffffff82111715610dcc57610dcb610d75565b5b80604052505050565b6000610ddf610a5d565b9050610deb8282610da4565b919050565b600067ffffffffffffffff821115610e0b57610e0a610d75565b5b610e1482610b9a565b9050602081019050919050565b82818337600083830152505050565b6000610e43610e3e84610df0565b610dd5565b905082815260208101848484011115610e5f57610e5e610d70565b5b610e6a848285610e21565b509392505050565b600082601f830112610e8757610e86610d6b565b5b8135610e97848260208601610e30565b91505092915050565b600060208284031215610eb657610eb5610a67565b5b600082013567ffffffffffffffff811115610ed457610ed3610a6c565b5b610ee084828501610e72565b91505092915050565b600081519050919050565b600082825260208201905092915050565b6000819050602082019050919050565b6000604083016000830151610f2d6000860182610c98565b5060208301518482036020860152610f458282610cb8565b9150508091505092915050565b6000610f5e8383610f15565b905092915050565b6000602082019050919050565b6000610f7e82610ee9565b610f888185610ef4565b935083602082028501610f9a85610f05565b8060005b85811015610fd65784840389528151610fb78582610f52565b9450610fc283610f66565b925060208a01995050600181019050610f9e565b50829750879550505050505092915050565b600060208201905081810360008301526110028184610f73565b905092915050565b7f566572696669636174696f6e3a204f6e6c792041646d696e2043616e2043616c60008201527f6c2066756e6374696f6e00000000000000000000000000000000000000000000602082015250565b6000611066602a83610b5f565b91506110718261100a565b604082019050919050565b6000602082019050818103600083015261109581611059565b9050919050565b7f4e487b7100000000000000000000000000000000000000000000000000000000600052602260045260246000fd5b600060028204905060018216806110e357607f821691505b6020821081036110f6576110f561109c565b5b50919050565b7f566572696669636174696f6e3a204665652063616e6e6f74206265207a65726f600082015250565b6000611132602083610b5f565b915061113d826110fc565b602082019050919050565b6000602082019050818103600083015261116181611125565b9050919050565b7f566572696669636174696f6e3a20756e646572666c6f772070726f746563746960008201527f6f6e000000000000000000000000000000000000000000000000000000000000602082015250565b60006111c4602283610b5f565b91506111cf82611168565b604082019050919050565b600060208201905081810360008301526111f3816111b7565b9050919050565b7f4e487b7100000000000000000000000000000000000000000000000000000000600052601160045260246000fd5b600061123482610acf565b915061123f83610acf565b9250828203905081811115611257576112566111fa565b5b92915050565b7f4e487b7100000000000000000000000000000000000000000000000000000000600052603260045260246000fd5b7f566572696669636174696f6e3a20506179205265717569726564204665650000600082015250565b60006112c2601e83610b5f565b91506112cd8261128c565b602082019050919050565b600060208201905081810360008301526112f1816112b5565b9050919050565b600061130382610acf565b915061130e83610acf565b9250828201905080821115611326576113256111fa565b5b92915050565b60008190508160005260206000209050919050565b60006020601f8301049050919050565b600082821b905092915050565b60006008830261138e7fffffffffffffffffffffffffffffffffffffffffffffffffffffffffffffffff82611351565b6113988683611351565b95508019841693508086168417925050509392505050565b6000819050919050565b60006113d56113d06113cb84610acf565b6113b0565b610acf565b9050919050565b6000819050919050565b6113ef836113ba565b6114036113fb826113dc565b84845461135e565b825550505050565b600090565b61141861140b565b6114238184846113e6565b505050565b5b818110156114475761143c600082611410565b600181019050611429565b5050565b601f82111561148c5761145d8161132c565b61146684611341565b81016020851015611475578190505b61148961148185611341565b830182611428565b50505b505050565b600082821c905092915050565b60006114af60001984600802611491565b1980831691505092915050565b60006114c8838361149e565b9150826002028217905092915050565b6114e182610b54565b67ffffffffffffffff8111156114fa576114f9610d75565b5b61150482546110cb565b61150f82828561144b565b600060209050601f8311600181146115425760008415611530578287015190505b61153a85826114bc565b8655506115a2565b601f1984166115508661132c565b60005b8281101561157857848901518255600182019150602085019450602081019050611553565b868310156115955784890151611591601f89168261149e565b8355505b6001600288020188555050505b50505050505056fea2646970667358221220c1876dc68f8062efaac2356d6e571f4645b0a38e2ae741f89a735ef3f36efc9564736f6c63430008120033",
  "linkReferences": {},
  "deployedLinkReferences": {}
}